{
  "address": "0x94737C7b4EE0860e7142988590d23eFAC32072Ef",
  "abi": [
    {
      "inputs": [
        {
          "internalType": "address",
          "name": "_dexRouter",
          "type": "address"
        }
      ],
      "stateMutability": "nonpayable",
      "type": "constructor"
    },
    {
      "anonymous": false,
      "inputs": [
        {
          "indexed": true,
          "internalType": "address",
          "name": "tokenAddress",
          "type": "address"
        },
        {
          "indexed": true,
          "internalType": "address",
          "name": "saleAddress",
          "type": "address"
        },
        {
          "indexed": true,
          "internalType": "address",
          "name": "vaultAddress",
          "type": "address"
        },
        {
          "indexed": false,
          "internalType": "address",
          "name": "oracleAddress",
          "type": "address"
        },
        {
          "indexed": false,
          "internalType": "address",
          "name": "bootstrapperAddress",
          "type": "address"
        }
      ],
      "name": "TokenLaunched",
      "type": "event"
    },
    {
      "inputs": [
        {
          "internalType": "string",
          "name": "name",
          "type": "string"
        },
        {
          "internalType": "string",
          "name": "symbol",
          "type": "string"
        }
      ],
      "name": "createTokenLaunch",
      "outputs": [
        {
          "internalType": "address",
          "name": "",
          "type": "address"
        },
        {
          "internalType": "address",
          "name": "",
          "type": "address"
        },
        {
          "internalType": "address",
          "name": "",
          "type": "address"
        }
      ],
      "stateMutability": "nonpayable",
      "type": "function"
    },
    {
      "inputs": [],
      "name": "dexRouter",
      "outputs": [
        {
          "internalType": "address",
          "name": "",
          "type": "address"
        }
      ],
      "stateMutability": "view",
      "type": "function"
    },
    {
      "inputs": [],
      "name": "owner",
      "outputs": [
        {
          "internalType": "address",
          "name": "",
          "type": "address"
        }
      ],
      "stateMutability": "view",
      "type": "function"
    }
  ],
  "transactionHash": "0x953fe4c72f4aee06d4cfc4dac28f32c506952ac4394fc9a1e35c792af48b1d3c",
  "args": [
    "0xD99D1c33F9fC3444f8101754aBC46c52416550D1"
  ],
  "numDeployments": 2,
  "solcInputHash": "baf60485db307955caeb26dc768e6300",
  "bytecode": "0x6080604052348015600f57600080fd5b5060405161458e38038061458e833981016040819052602c916059565b600080546001600160a01b039092166001600160a01b031992831617905560018054909116331790556087565b600060208284031215606a57600080fd5b81516001600160a01b0381168114608057600080fd5b9392505050565b6144f8806100966000396000f3fe608060405234801561001057600080fd5b50600436106100415760003560e01c80630758d924146100465780635b7ac4f2146100765780638da5cb5b146100b3575b600080fd5b600054610059906001600160a01b031681565b6040516001600160a01b0390911681526020015b60405180910390f35b6100896100843660046105c4565b6100c6565b604080516001600160a01b039485168152928416602084015292169181019190915260600161006d565b600154610059906001600160a01b031681565b6000806000808585306040516100db906104de565b6100e793929190610673565b604051809103906000f080158015610103573d6000803e3d6000fd5b509050600030604051610115906104eb565b6001600160a01b039091168152602001604051809103906000f080158015610141573d6000803e3d6000fd5b5090506000828260008054906101000a90046001600160a01b031630604051610169906104f8565b6001600160a01b039485168152928416602084015290831660408301529091166060820152608001604051809103906000f0801580156101ad573d6000803e3d6000fd5b50905060008383306040516101c190610505565b6001600160a01b03938416815291831660208301529091166040820152606001604051809103906000f0801580156101fd573d6000803e3d6000fd5b5090506000848285853060405161021390610512565b6001600160a01b0395861681529385166020850152918416604084015283166060830152909116608082015260a001604051809103906000f08015801561025e573d6000803e3d6000fd5b50604051637e51dad560e11b81526001600160a01b0380831660048301529192509086169063fca3b5aa90602401600060405180830381600087803b1580156102a657600080fd5b505af11580156102ba573d6000803e3d6000fd5b505060405163f2fde38b60e01b81526001600160a01b0384811660048301528716925063f2fde38b9150602401600060405180830381600087803b15801561030157600080fd5b505af1158015610315573d6000803e3d6000fd5b505060405163f2fde38b60e01b81526001600160a01b0384811660048301528516925063f2fde38b9150602401600060405180830381600087803b15801561035c57600080fd5b505af1158015610370573d6000803e3d6000fd5b505060405163f2fde38b60e01b81523360048201526001600160a01b038616925063f2fde38b9150602401600060405180830381600087803b1580156103b557600080fd5b505af11580156103c9573d6000803e3d6000fd5b505060405163f2fde38b60e01b81523360048201526001600160a01b038816925063f2fde38b9150602401600060405180830381600087803b15801561040e57600080fd5b505af1158015610422573d6000803e3d6000fd5b505060405163f2fde38b60e01b81523360048201526001600160a01b038416925063f2fde38b9150602401600060405180830381600087803b15801561046757600080fd5b505af115801561047b573d6000803e3d6000fd5b5050604080516001600160a01b0388811682528781166020830152808716945085811693508916917f1df306358a26d20705bac998f569ad9bc0b1183267c95e7c1c6f1c324310b028910160405180910390a49399939850965091945050505050565b610e09806106b283390190565b6107db806114bb83390190565b6107e580611c9683390190565b610d2d8061247b83390190565b61131b806131a883390190565b634e487b7160e01b600052604160045260246000fd5b600082601f83011261054657600080fd5b813567ffffffffffffffff8111156105605761056061051f565b604051601f8201601f19908116603f0116810167ffffffffffffffff8111828210171561058f5761058f61051f565b6040528181528382016020018510156105a757600080fd5b816020850160208301376000918101602001919091529392505050565b600080604083850312156105d757600080fd5b823567ffffffffffffffff8111156105ee57600080fd5b6105fa85828601610535565b925050602083013567ffffffffffffffff81111561061757600080fd5b61062385828601610535565b9150509250929050565b6000815180845260005b8181101561065357602081850181015186830182015201610637565b506000602082860101526020601f19601f83011685010191505092915050565b606081526000610686606083018661062d565b8281036020840152610698818661062d565b91505060018060a01b038316604083015294935050505056fe608060405234801561001057600080fd5b50604051610e09380380610e0983398101604081905261002f91610199565b808383600361003e83826102ad565b50600461004b82826102ad565b5050506001600160a01b03811661007c57604051631e4fbdf760e01b81526000600482015260240160405180910390fd5b6100858161008e565b5050505061036b565b600580546001600160a01b038381166001600160a01b0319831681179093556040519116919082907f8be0079c531659141344cd1fd0a4f28419497f9722a3daafe3b4186f6b6457e090600090a35050565b634e487b7160e01b600052604160045260246000fd5b600082601f83011261010757600080fd5b81516001600160401b03811115610120576101206100e0565b604051601f8201601f19908116603f011681016001600160401b038111828210171561014e5761014e6100e0565b60405281815283820160200185101561016657600080fd5b60005b8281101561018557602081860181015183830182015201610169565b506000918101602001919091529392505050565b6000806000606084860312156101ae57600080fd5b83516001600160401b038111156101c457600080fd5b6101d0868287016100f6565b602086015190945090506001600160401b038111156101ee57600080fd5b6101fa868287016100f6565b604086015190935090506001600160a01b038116811461021957600080fd5b809150509250925092565b600181811c9082168061023857607f821691505b60208210810361025857634e487b7160e01b600052602260045260246000fd5b50919050565b601f8211156102a857806000526020600020601f840160051c810160208510156102855750805b601f840160051c820191505b818110156102a55760008155600101610291565b50505b505050565b81516001600160401b038111156102c6576102c66100e0565b6102da816102d48454610224565b8461025e565b6020601f82116001811461030e57600083156102f65750848201515b600019600385901b1c1916600184901b1784556102a5565b600084815260208120601f198516915b8281101561033e578785015182556020948501946001909201910161031e565b508482101561035c5786840151600019600387901b60f8161c191681555b50505050600190811b01905550565b610a8f8061037a6000396000f3fe608060405234801561001057600080fd5b50600436106101005760003560e01c8063715018a611610097578063a9059cbb11610066578063a9059cbb14610217578063dd62ed3e1461022a578063f2fde38b14610263578063fca3b5aa1461027657600080fd5b8063715018a6146101e35780638da5cb5b146101eb57806395d89b41146101fc5780639dc29fac1461020457600080fd5b806323b872dd116100d357806323b872dd14610183578063313ce5671461019657806340c10f19146101a557806370a08231146101ba57600080fd5b806306fdde03146101055780630754617214610123578063095ea7b31461014e57806318160ddd14610171575b600080fd5b61010d610289565b60405161011a91906108d8565b60405180910390f35b600654610136906001600160a01b031681565b6040516001600160a01b03909116815260200161011a565b61016161015c366004610942565b61031b565b604051901515815260200161011a565b6002545b60405190815260200161011a565b61016161019136600461096c565b610335565b6040516012815260200161011a565b6101b86101b3366004610942565b610359565b005b6101756101c83660046109a9565b6001600160a01b031660009081526020819052604090205490565b6101b86103bd565b6005546001600160a01b0316610136565b61010d6103d1565b6101b8610212366004610942565b6103e0565b610161610225366004610942565b61043b565b6101756102383660046109cb565b6001600160a01b03918216600090815260016020908152604080832093909416825291909152205490565b6101b86102713660046109a9565b610449565b6101b86102843660046109a9565b610487565b606060038054610298906109fe565b80601f01602080910402602001604051908101604052809291908181526020018280546102c4906109fe565b80156103115780601f106102e657610100808354040283529160200191610311565b820191906000526020600020905b8154815290600101906020018083116102f457829003601f168201915b5050505050905090565b6000336103298185856104ff565b60019150505b92915050565b600033610343858285610511565b61034e85858561058f565b506001949350505050565b6006546001600160a01b031633146103af5760405162461bcd60e51b815260206004820152601460248201527313db9b1e481b5a5b9d195c8818d85b881b5a5b9d60621b60448201526064015b60405180910390fd5b6103b982826105ee565b5050565b6103c5610624565b6103cf6000610651565b565b606060048054610298906109fe565b6006546001600160a01b031633146104315760405162461bcd60e51b815260206004820152601460248201527327b7363c9036b4b73a32b91031b0b710313ab93760611b60448201526064016103a6565b6103b982826106a3565b60003361032981858561058f565b610451610624565b6001600160a01b03811661047b57604051631e4fbdf760e01b8152600060048201526024016103a6565b61048481610651565b50565b61048f610624565b6006546001600160a01b0316156104dd5760405162461bcd60e51b8152602060048201526012602482015271135a5b9d195c88185b1c9958591e481cd95d60721b60448201526064016103a6565b600680546001600160a01b0319166001600160a01b0392909216919091179055565b61050c83838360016106d9565b505050565b6001600160a01b038381166000908152600160209081526040808320938616835292905220546000198114610589578181101561057a57604051637dc7a0d960e11b81526001600160a01b038416600482015260248101829052604481018390526064016103a6565b610589848484840360006106d9565b50505050565b6001600160a01b0383166105b957604051634b637e8f60e11b8152600060048201526024016103a6565b6001600160a01b0382166105e35760405163ec442f0560e01b8152600060048201526024016103a6565b61050c8383836107ae565b6001600160a01b0382166106185760405163ec442f0560e01b8152600060048201526024016103a6565b6103b9600083836107ae565b6005546001600160a01b031633146103cf5760405163118cdaa760e01b81523360048201526024016103a6565b600580546001600160a01b038381166001600160a01b0319831681179093556040519116919082907f8be0079c531659141344cd1fd0a4f28419497f9722a3daafe3b4186f6b6457e090600090a35050565b6001600160a01b0382166106cd57604051634b637e8f60e11b8152600060048201526024016103a6565b6103b9826000836107ae565b6001600160a01b0384166107035760405163e602df0560e01b8152600060048201526024016103a6565b6001600160a01b03831661072d57604051634a1406b160e11b8152600060048201526024016103a6565b6001600160a01b038085166000908152600160209081526040808320938716835292905220829055801561058957826001600160a01b0316846001600160a01b03167f8c5be1e5ebec7d5bd14f71427d1e84f3dd0314c0f7b2291e5b200ac8c7c3b925846040516107a091815260200190565b60405180910390a350505050565b6001600160a01b0383166107d95780600260008282546107ce9190610a38565b9091555061084b9050565b6001600160a01b0383166000908152602081905260409020548181101561082c5760405163391434e360e21b81526001600160a01b038516600482015260248101829052604481018390526064016103a6565b6001600160a01b03841660009081526020819052604090209082900390555b6001600160a01b03821661086757600280548290039055610886565b6001600160a01b03821660009081526020819052604090208054820190555b816001600160a01b0316836001600160a01b03167fddf252ad1be2c89b69c2b068fc378daa952ba7f163c4a11628f55a4df523b3ef836040516108cb91815260200190565b60405180910390a3505050565b602081526000825180602084015260005b8181101561090657602081860181015160408684010152016108e9565b506000604082850101526040601f19601f83011684010191505092915050565b80356001600160a01b038116811461093d57600080fd5b919050565b6000806040838503121561095557600080fd5b61095e83610926565b946020939093013593505050565b60008060006060848603121561098157600080fd5b61098a84610926565b925061099860208501610926565b929592945050506040919091013590565b6000602082840312156109bb57600080fd5b6109c482610926565b9392505050565b600080604083850312156109de57600080fd5b6109e783610926565b91506109f560208401610926565b90509250929050565b600181811c90821680610a1257607f821691505b602082108103610a3257634e487b7160e01b600052602260045260246000fd5b50919050565b8082018082111561032f57634e487b7160e01b600052601160045260246000fdfea2646970667358221220bd6896cf2a544a0a56a6ce427c4e485e9e4a9cc1d6ec671823b66ac322a1b2dd64736f6c634300081e0033608060405234801561001057600080fd5b506040516107db3803806107db83398101604081905261002f916100be565b806001600160a01b03811661005e57604051631e4fbdf760e01b81526000600482015260240160405180910390fd5b6100678161006e565b50506100ee565b600080546001600160a01b038381166001600160a01b0319831681178455604051919092169283917f8be0079c531659141344cd1fd0a4f28419497f9722a3daafe3b4186f6b6457e09190a35050565b6000602082840312156100d057600080fd5b81516001600160a01b03811681146100e757600080fd5b9392505050565b6106de806100fd6000396000f3fe608060405234801561001057600080fd5b50600436106101005760003560e01c80638da5cb5b11610097578063bf2ef77711610066578063bf2ef777146101d9578063d216005b146101e2578063de5a9b5d146101ea578063f2fde38b146101f357600080fd5b80638da5cb5b1461018f5780639075e4c9146101aa578063aa1c3aa5146101bd578063ac7add49146101c657600080fd5b8063573b0082116100d3578063573b0082146101575780636141e9bd1461015f57806367f7874914610174578063715018a61461018757600080fd5b80631a60ca0e1461010557806327ff6223146101215780633bbfa2321461012a5780634d893b981461014e575b600080fd5b61010e60055481565b6040519081526020015b60405180910390f35b61010e61271081565b60005461013e90600160a01b900460ff1681565b6040519015158152602001610118565b61010e60045481565b61010e610206565b61017261016d3660046105c2565b61032d565b005b6101726101823660046105e4565b61037d565b6101726103e0565b6000546040516001600160a01b039091168152602001610118565b6101726101b83660046105e4565b6103f4565b61010e60025481565b6101726101d43660046105c2565b610473565b61010e60015481565b60015461010e565b61010e60035481565b6101726102013660046105fd565b610507565b60008054600160a01b900460ff166102a057600061138890506000600a600254101561023f5760025461023a9060c8610643565b610243565b6107d05b90506000606460035410156102655760035461026090601e610643565b610269565b610bb85b90506000816102788486610660565b6102829190610660565b905061271081116102935780610297565b6127105b94505050505090565b6000611b5890506000611388600554116102bc576005546102c0565b6113885b90506000678ac7230489e80000600454116102fd57678ac7230489e80000600454610bb86102ee9190610643565b6102f89190610673565b610301565b610bb85b9050600061030f8285610660565b905080831061032357600094505050505090565b6102828382610695565b610335610545565b6002829055600381905560408051838152602081018390527fe09f4f43b1d1ea04cdf03db091f5b4c428f8ffc49f36176cea4498e33b9519bc91015b60405180910390a15050565b610385610545565b6000805460ff60a01b1916600160a01b17905560048190556127106001556040517f15632e8a02d4cab849581de382d718092cfc11c207d7628ca782dbf433ab3480906103d59083815260200190565b60405180910390a150565b6103e8610545565b6103f26000610572565b565b6103fc610545565b61271081111561043e5760405162461bcd60e51b81526020600482015260086024820152674d6178203130302560c01b60448201526064015b60405180910390fd5b60018190556040518181527f2e9675bce390fcf39ef3fe40be6c81f3a56a2195ad1b5a586eb02cda1a1143c7906020016103d5565b61047b610545565b600054600160a01b900460ff166104c75760405162461bcd60e51b815260206004820152601060248201526f111156081b9bdd081b1a5d99481e595d60821b6044820152606401610435565b6004829055600581905560408051838152602081018390527f024ecf768d11b41c25661d1bd3b0ab348a768a2fb7dfef6ef3fe5d825e8a355e9101610371565b61050f610545565b6001600160a01b03811661053957604051631e4fbdf760e01b815260006004820152602401610435565b61054281610572565b50565b6000546001600160a01b031633146103f25760405163118cdaa760e01b8152336004820152602401610435565b600080546001600160a01b038381166001600160a01b0319831681178455604051919092169283917f8be0079c531659141344cd1fd0a4f28419497f9722a3daafe3b4186f6b6457e09190a35050565b600080604083850312156105d557600080fd5b50508035926020909101359150565b6000602082840312156105f657600080fd5b5035919050565b60006020828403121561060f57600080fd5b81356001600160a01b038116811461062657600080fd5b9392505050565b634e487b7160e01b600052601160045260246000fd5b808202811582820484141761065a5761065a61062d565b92915050565b8082018082111561065a5761065a61062d565b60008261069057634e487b7160e01b600052601260045260246000fd5b500490565b8181038181111561065a5761065a61062d56fea264697066735822122073062af72ad6cddb4856dbeedcc6e626b041e978a37cbccdcc457f4a1287017864736f6c634300081e003360e060405234801561001057600080fd5b506040516107e53803806107e583398101604081905261002f916100f2565b806001600160a01b03811661005e57604051631e4fbdf760e01b81526000600482015260240160405180910390fd5b61006781610086565b50506001600160a01b0392831660a05290821660c05216608052610146565b600080546001600160a01b038381166001600160a01b0319831681178455604051919092169283917f8be0079c531659141344cd1fd0a4f28419497f9722a3daafe3b4186f6b6457e09190a35050565b80516001600160a01b03811681146100ed57600080fd5b919050565b6000806000806080858703121561010857600080fd5b610111856100d6565b935061011f602086016100d6565b925061012d604086016100d6565b915061013b606086016100d6565b905092959194509250565b60805160a05160c051610655610190600039600060bc0152600081816101b0015281816102bf015261036401526000818161017c01528181610290015261033401526106556000f3fe60806040526004361061007b5760003560e01c8063d94439231161004e578063d944392314610119578063f2fde38b1461014a578063f887ea401461016a578063fc0c546a1461019e57600080fd5b80635af41d0114610080578063715018a6146100955780637dc0d1d0146100aa5780638da5cb5b146100fb575b600080fd5b61009361008e366004610556565b6101d2565b005b3480156100a157600080fd5b50610093610487565b3480156100b657600080fd5b506100de7f000000000000000000000000000000000000000000000000000000000000000081565b6040516001600160a01b0390911681526020015b60405180910390f35b34801561010757600080fd5b506000546001600160a01b03166100de565b34801561012557600080fd5b5060005461013a90600160a01b900460ff1681565b60405190151581526020016100f2565b34801561015657600080fd5b50610093610165366004610578565b61049b565b34801561017657600080fd5b506100de7f000000000000000000000000000000000000000000000000000000000000000081565b3480156101aa57600080fd5b506100de7f000000000000000000000000000000000000000000000000000000000000000081565b600054600160a01b900460ff16156102215760405162461bcd60e51b815260206004820152600d60248201526c105b1c9958591e481859191959609a1b60448201526064015b60405180910390fd5b8134146102665760405162461bcd60e51b81526020600482015260136024820152720849c8440c2dadeeadce840dad2e6dac2e8c6d606b1b6044820152606401610218565b6000805460ff60a01b1916600160a01b17905560405163095ea7b360e01b81526001600160a01b037f000000000000000000000000000000000000000000000000000000000000000081166004830152602482018390527f0000000000000000000000000000000000000000000000000000000000000000169063095ea7b3906044016020604051808303816000875af1158015610308573d6000803e3d6000fd5b505050506040513d601f19601f8201168201806040525081019061032c91906105a8565b5060008060007f00000000000000000000000000000000000000000000000000000000000000006001600160a01b031663f305d719867f0000000000000000000000000000000000000000000000000000000000000000876000806103996000546001600160a01b031690565b6103a54261012c6105ca565b60405160e089901b6001600160e01b03191681526001600160a01b039687166004820152602481019590955260448501939093526064840191909152909216608482015260a481019190915260c40160606040518083038185885af1158015610412573d6000803e3d6000fd5b50505050506040513d601f19601f8201168201806040525081019061043791906105f1565b604080518381526020810185905290810182905292955090935091507fd7f28048575eead8851d024ead087913957dfb4fd1a02b4d1573f5352a5a2be39060600160405180910390a15050505050565b61048f6104d9565b6104996000610506565b565b6104a36104d9565b6001600160a01b0381166104cd57604051631e4fbdf760e01b815260006004820152602401610218565b6104d681610506565b50565b6000546001600160a01b031633146104995760405163118cdaa760e01b8152336004820152602401610218565b600080546001600160a01b038381166001600160a01b0319831681178455604051919092169283917f8be0079c531659141344cd1fd0a4f28419497f9722a3daafe3b4186f6b6457e09190a35050565b6000806040838503121561056957600080fd5b50508035926020909101359150565b60006020828403121561058a57600080fd5b81356001600160a01b03811681146105a157600080fd5b9392505050565b6000602082840312156105ba57600080fd5b815180151581146105a157600080fd5b808201808211156105eb57634e487b7160e01b600052601160045260246000fd5b92915050565b60008060006060848603121561060657600080fd5b505081516020830151604090930151909492935091905056fea26469706673582212204ee0e4eac8b531bb87fdd01d5f259870720a41838d0848736ea1feca8e5986c964736f6c634300081e003360c060405234801561001057600080fd5b50604051610d2d380380610d2d83398101604081905261002f91610199565b806001600160a01b03811661005f57604051631e4fbdf760e01b8152600060048201526024015b60405180910390fd5b6100688161012d565b506001600160a01b0383166100bf5760405162461bcd60e51b815260206004820152601560248201527f496e76616c696420746f6b656e206164647265737300000000000000000000006044820152606401610056565b6001600160a01b0382166101155760405162461bcd60e51b815260206004820152601660248201527f496e76616c6964206f7261636c652061646472657373000000000000000000006044820152606401610056565b506001600160a01b039182166080521660a0526101dc565b600080546001600160a01b038381166001600160a01b0319831681178455604051919092169283917f8be0079c531659141344cd1fd0a4f28419497f9722a3daafe3b4186f6b6457e09190a35050565b80516001600160a01b038116811461019457600080fd5b919050565b6000806000606084860312156101ae57600080fd5b6101b78461017d565b92506101c56020850161017d565b91506101d36040850161017d565b90509250925092565b60805160a051610b176102166000396000818161013e0152818161043501526104bb01526000818161021601526103270152610b176000f3fe608060405234801561001057600080fd5b50600436106100ea5760003560e01c806380c3780f1161008c578063929ec53711610066578063929ec537146101eb578063f2fde38b146101fe578063fc0c546a14610211578063fc0e46fc1461011557600080fd5b806380c3780f1461018b5780638d74064f146101c75780638da5cb5b146101da57600080fd5b8063715018a6116100c8578063715018a61461011e5780637274f7fd146101265780637dc0d1d0146101395780637f83ea6d1461017857600080fd5b80634e71d92d146100ef57806356891412146100f95780636972fdbe14610115575b600080fd5b6100f7610238565b005b61010260025481565b6040519081526020015b60405180910390f35b61010261271081565b6100f7610388565b6101026101343660046109bd565b61039c565b6101607f000000000000000000000000000000000000000000000000000000000000000081565b6040516001600160a01b03909116815260200161010c565b6101026101863660046109bd565b6103ef565b6101b26101993660046109bd565b6001602081905260009182526040909120805491015482565b6040805192835260208301919091520161010c565b6100f76101d53660046109d8565b61058e565b6000546001600160a01b0316610160565b6101026101f93660046109bd565b6106a8565b6100f761020c3660046109bd565b6106f1565b6101607f000000000000000000000000000000000000000000000000000000000000000081565b336000908152600160205260409020805461028a5760405162461bcd60e51b815260206004820152600d60248201526c27379030b63637b1b0ba34b7b760991b60448201526064015b60405180910390fd5b60006102953361039c565b9050600081116102e75760405162461bcd60e51b815260206004820152601c60248201527f4e6f20746f6b656e7320746f20636c61696d207269676874206e6f77000000006044820152606401610281565b808260010160008282546102fb9190610a18565b9250508190555080600260008282546103149190610a2b565b9091555061034e90506001600160a01b037f000000000000000000000000000000000000000000000000000000000000000016338361072f565b60405181815233907f896e034966eaaf1adc54acc0f257056febbd300c9e47182cf761982cf1f5e430906020015b60405180910390a25050565b610390610786565b61039a60006107b3565b565b6001600160a01b03811660009081526001602081815260408084208151808301909252805482529092015490820152816103d5846103ef565b90508160200151816103e79190610a2b565b949350505050565b6001600160a01b038116600090815260016020818152604080842081518083019092528054808352930154918101919091529082036104315750600092915050565b60007f00000000000000000000000000000000000000000000000000000000000000006001600160a01b031663573b00826040518163ffffffff1660e01b8152600401602060405180830381865afa158015610491573d6000803e3d6000fd5b505050506040513d601f19601f820116820180604052508101906104b59190610a3e565b905060007f00000000000000000000000000000000000000000000000000000000000000006001600160a01b031663d216005b6040518163ffffffff1660e01b8152600401602060405180830381865afa158015610517573d6000803e3d6000fd5b505050506040513d601f19601f8201168201806040525081019061053b9190610a3e565b9050600061054b61271080610a57565b8451839061055a908690610a57565b6105649190610a57565b61056e9190610a6e565b845190915081111561058557505090519392505050565b95945050505050565b610596610786565b6001600160a01b0382166105e25760405162461bcd60e51b8152602060048201526013602482015272496e76616c69642062656e656669636961727960681b6044820152606401610281565b600081116106275760405162461bcd60e51b81526020600482015260126024820152710416d6f756e74206d757374206265203e20360741b6044820152606401610281565b6001600160a01b0382166000908152600160205260408120805483929061064f908490610a18565b9250508190555080600260008282546106689190610a18565b90915550506040518181526001600160a01b038316907f3b87361b8a201c697d51aaa7a509f6dfb3870db9e5c5501d22d3e9fae858f7259060200161037c565b6001600160a01b03811660009081526001602081815260408084208151808301909252805482529092015490820152816106e1846103ef565b82519091506103e7908290610a2b565b6106f9610786565b6001600160a01b03811661072357604051631e4fbdf760e01b815260006004820152602401610281565b61072c816107b3565b50565b604080516001600160a01b038416602482015260448082018490528251808303909101815260649091019091526020810180516001600160e01b031663a9059cbb60e01b179052610781908490610803565b505050565b6000546001600160a01b0316331461039a5760405163118cdaa760e01b8152336004820152602401610281565b600080546001600160a01b038381166001600160a01b0319831681178455604051919092169283917f8be0079c531659141344cd1fd0a4f28419497f9722a3daafe3b4186f6b6457e09190a35050565b60006108186001600160a01b03841683610866565b9050805160001415801561083d57508080602001905181019061083b9190610a90565b155b1561078157604051635274afe760e01b81526001600160a01b0384166004820152602401610281565b60606108748383600061087d565b90505b92915050565b6060814710156108a25760405163cd78605960e01b8152306004820152602401610281565b600080856001600160a01b031684866040516108be9190610ab2565b60006040518083038185875af1925050503d80600081146108fb576040519150601f19603f3d011682016040523d82523d6000602084013e610900565b606091505b509150915061091086838361091c565b925050505b9392505050565b6060826109315761092c82610978565b610915565b815115801561094857506001600160a01b0384163b155b1561097157604051639996b31560e01b81526001600160a01b0385166004820152602401610281565b5080610915565b8051156109885780518082602001fd5b604051630a12f52160e11b815260040160405180910390fd5b80356001600160a01b03811681146109b857600080fd5b919050565b6000602082840312156109cf57600080fd5b610874826109a1565b600080604083850312156109eb57600080fd5b6109f4836109a1565b946020939093013593505050565b634e487b7160e01b600052601160045260246000fd5b8082018082111561087757610877610a02565b8181038181111561087757610877610a02565b600060208284031215610a5057600080fd5b5051919050565b808202811582820484141761087757610877610a02565b600082610a8b57634e487b7160e01b600052601260045260246000fd5b500490565b600060208284031215610aa257600080fd5b8151801515811461091557600080fd5b6000825160005b81811015610ad35760208186018101518583015201610ab9565b50600092019182525091905056fea2646970667358221220547068f63099a6a552a7349b68e18dc2f3f8c43cbb719c5cf811924d022e1d5364736f6c634300081e003360e060405234801561001057600080fd5b5060405161131b38038061131b83398101604081905261002f91610108565b806001600160a01b03811661005e57604051631e4fbdf760e01b81526000600482015260240160405180910390fd5b6100678161009c565b50506001600160a01b0393841660805291831660a052821660c052600180546001600160a01b0319169190921617905561016d565b600080546001600160a01b038381166001600160a01b0319831681178455604051919092169283917f8be0079c531659141344cd1fd0a4f28419497f9722a3daafe3b4186f6b6457e09190a35050565b80516001600160a01b038116811461010357600080fd5b919050565b600080600080600060a0868803121561012057600080fd5b610129866100ec565b9450610137602087016100ec565b9350610145604087016100ec565b9250610153606087016100ec565b9150610161608087016100ec565b90509295509295909350565b60805160a05160c0516111406101db6000396000818161027a01528181610a0e01528181610ac90152610f8801526000818161036801528181610b480152610bed01526000818161039c015281816105d701528181610b7701528181610e090152610ea001526111406000f3fe60806040526004361061011f5760003560e01c80638da5cb5b116100a0578063d47a201011610064578063d47a20101461030a578063de5a9b5d14610320578063f2fde38b14610336578063fbfa77cf14610356578063fc0c546a1461038a57600080fd5b80638da5cb5b1461029c5780639776d4b7146102ba5780639b8906ae146102cf578063bb198024146102e9578063d0febe4c1461030257600080fd5b80636c11bcd3116100e75780636c11bcd3146101e0578063715018a614610202578063786e0838146102175780637c5e27951461024f5780637dc0d1d01461026857600080fd5b80630a09c62b146101245780631d5329911461014d57806332cb6b0c1461016a578063518ab2a81461018a57806360068dd8146101a0575b600080fd5b34801561013057600080fd5b5061013a60065481565b6040519081526020015b60405180910390f35b34801561015957600080fd5b5061013a6802b5e3af16b188000081565b34801561017657600080fd5b5061013a6b033b2e3c9fd0803ce800000081565b34801561019657600080fd5b5061013a60025481565b3480156101ac57600080fd5b506101d06101bb366004610ff2565b60056020526000908152604090205460ff1681565b6040519015158152602001610144565b3480156101ec57600080fd5b506102006101fb366004611022565b6103be565b005b34801561020e57600080fd5b5061020061070b565b34801561022357600080fd5b50600154610237906001600160a01b031681565b6040516001600160a01b039091168152602001610144565b34801561025b57600080fd5b5061013a6402540be40081565b34801561027457600080fd5b506102377f000000000000000000000000000000000000000000000000000000000000000081565b3480156102a857600080fd5b506000546001600160a01b0316610237565b3480156102c657600080fd5b5061020061071f565b3480156102db57600080fd5b506004546101d09060ff1681565b3480156102f557600080fd5b5061013a64174876e80081565b610200610815565b34801561031657600080fd5b5061013a60035481565b34801561032c57600080fd5b5061013a60075481565b34801561034257600080fd5b50610200610351366004610ff2565b610cc8565b34801561036257600080fd5b506102377f000000000000000000000000000000000000000000000000000000000000000081565b34801561039657600080fd5b506102377f000000000000000000000000000000000000000000000000000000000000000081565b60045460ff16156104165760405162461bcd60e51b815260206004820152601b60248201527f53616c652068617320656e6465642c207573652074686520444558000000000060448201526064015b60405180910390fd5b6000811161045e5760405162461bcd60e51b815260206004820152601560248201527404d7573742073656c6c206d6f7265207468616e203605c1b604482015260640161040d565b8060025410156104b05760405162461bcd60e51b815260206004820181905260248201527f43616e6e6f742073656c6c206d6f7265207468616e20637572766520736f6c64604482015260640161040d565b60006b033b2e3c9fd0803ce80000006002546127106104cf9190611051565b6104d9919061106e565b90506000612710826104f56402540be40064174876e800611090565b6104ff9190611051565b610509919061106e565b610518906402540be4006110a3565b90506000670de0b6b3a764000061052f8386611051565b610539919061106e565b90508047101561058b5760405162461bcd60e51b815260206004820152601c60248201527f496e73756666696369656e7420424e4220696e20636f6e747261637400000000604482015260640161040d565b836002600082825461059d9190611090565b9250508190555080600360008282546105b69190611090565b9091555050604051632770a7eb60e21b8152336004820152602481018590527f00000000000000000000000000000000000000000000000000000000000000006001600160a01b031690639dc29fac90604401600060405180830381600087803b15801561062357600080fd5b505af1158015610637573d6000803e3d6000fd5b50506040516000925033915083908381818185875af1925050503d806000811461067d576040519150601f19603f3d011682016040523d82523d6000602084013e610682565b606091505b50509050806106c95760405162461bcd60e51b8152602060048201526013602482015272109390881d1c985b9cd9995c8819985a5b1959606a1b604482015260640161040d565b604080518681526020810184905233917f2dcf9433d75db0d8b1c172641f85e319ffe4ad22e108a95d1847ceb906e5195d910160405180910390a25050505050565b610713610d06565b61071d6000610d33565b565b610727610d06565b60045460ff1661076a5760405162461bcd60e51b815260206004820152600e60248201526d14d85b19481b9bdd08195b99195960921b604482015260640161040d565b47600061077f6000546001600160a01b031690565b6001600160a01b03168260405160006040518083038185875af1925050503d80600081146107c9576040519150601f19603f3d011682016040523d82523d6000602084013e6107ce565b606091505b50509050806108115760405162461bcd60e51b815260206004820152600f60248201526e15da5d1a191c985dc819985a5b1959608a1b604482015260640161040d565b5050565b60045460ff16156108595760405162461bcd60e51b815260206004820152600e60248201526d14d85b19481a185cc8195b99195960921b604482015260640161040d565b600034116108995760405162461bcd60e51b815260206004820152600d60248201526c26bab9ba1039b2b7321021272160991b604482015260640161040d565b60006b033b2e3c9fd0803ce80000006002546127106108b89190611051565b6108c2919061106e565b90506000612710826108de6402540be40064174876e800611090565b6108e89190611051565b6108f2919061106e565b610901906402540be4006110a3565b905060008161091834670de0b6b3a7640000611051565b610922919061106e565b90506b033b2e3c9fd0803ce80000008160025461093f91906110a3565b11156109825760405162461bcd60e51b815260206004820152601260248201527145786365656473206d617820737570706c7960701b604482015260640161040d565b806002600082825461099491906110a3565b9250508190555034600360008282546109ad91906110a3565b90915550503360009081526005602052604090205460ff166109f757336000908152600560205260408120805460ff1916600117905560068054916109f1836110b6565b91905055505b60078054906000610a07836110b6565b91905055507f00000000000000000000000000000000000000000000000000000000000000006001600160a01b0316639075e4c96b033b2e3c9fd0803ce8000000600254612710610a589190611051565b610a62919061106e565b6040518263ffffffff1660e01b8152600401610a8091815260200190565b600060405180830381600087803b158015610a9a57600080fd5b505af1925050508015610aab575060015b50600654600754604051636141e9bd60e01b81526001600160a01b037f00000000000000000000000000000000000000000000000000000000000000001692636141e9bd92610b0592600401918252602082015260400190565b600060405180830381600087803b158015610b1f57600080fd5b505af1925050508015610b30575060015b506040516340c10f1960e01b81526001600160a01b037f000000000000000000000000000000000000000000000000000000000000000081166004830152602482018390527f000000000000000000000000000000000000000000000000000000000000000016906340c10f1990604401600060405180830381600087803b158015610bbb57600080fd5b505af1158015610bcf573d6000803e3d6000fd5b5050604051638d74064f60e01b8152336004820152602481018490527f00000000000000000000000000000000000000000000000000000000000000006001600160a01b03169250638d74064f9150604401600060405180830381600087803b158015610c3b57600080fd5b505af1158015610c4f573d6000803e3d6000fd5b505060408051348152602081018590523393507f8fafebcaf9d154343dad25669bfa277f4fbacd7ac6b0c4fed522580e040a0f3392500160405180910390a26802b5e3af16b1880000600354101580610cb657506b033b2e3c9fd0803ce800000060025410155b15610cc357610cc3610d83565b505050565b610cd0610d06565b6001600160a01b038116610cfa57604051631e4fbdf760e01b81526000600482015260240161040d565b610d0381610d33565b50565b6000546001600160a01b0316331461071d5760405163118cdaa760e01b815233600482015260240161040d565b600080546001600160a01b038381166001600160a01b0319831681178455604051919092169283917f8be0079c531659141344cd1fd0a4f28419497f9722a3daafe3b4186f6b6457e09190a35050565b6004805460ff191660011790556003546002546040517fcd1fa3e5e68c80fbddd1ae121cbe6c3b89ad50be44bae0f7af595bb0db9fcbc192610dcd92908252602082015260400190565b60405180910390a160006002600354610de6919061106e565b6040516370a0823160e01b81523060048201529091506000906001600160a01b037f000000000000000000000000000000000000000000000000000000000000000016906370a0823190602401602060405180830381865afa158015610e50573d6000803e3d6000fd5b505050506040513d601f19601f82011682018060405250810190610e7491906110cf565b60015460405163095ea7b360e01b81526001600160a01b039182166004820152602481018390529192507f0000000000000000000000000000000000000000000000000000000000000000169063095ea7b3906044016020604051808303816000875af1158015610ee9573d6000803e3d6000fd5b505050506040513d601f19601f82011682018060405250810190610f0d91906110e8565b50600154604051635af41d0160e01b815260048101849052602481018390526001600160a01b0390911690635af41d019084906044016000604051808303818588803b158015610f5c57600080fd5b505af1158015610f70573d6000803e3d6000fd5b50506040516367f7874960e01b8152600481018690527f00000000000000000000000000000000000000000000000000000000000000006001600160a01b031693506367f7874992506024019050600060405180830381600087803b158015610fd857600080fd5b505af1925050508015610fe9575060015b15610811575050565b60006020828403121561100457600080fd5b81356001600160a01b038116811461101b57600080fd5b9392505050565b60006020828403121561103457600080fd5b5035919050565b634e487b7160e01b600052601160045260246000fd5b80820281158282048414176110685761106861103b565b92915050565b60008261108b57634e487b7160e01b600052601260045260246000fd5b500490565b818103818111156110685761106861103b565b808201808211156110685761106861103b565b6000600182016110c8576110c861103b565b5060010190565b6000602082840312156110e157600080fd5b5051919050565b6000602082840312156110fa57600080fd5b8151801515811461101b57600080fdfea2646970667358221220ee5b9b46cbe07b025d89499f127aa907186a5813640d5092c92f7fe3469c398f64736f6c634300081e0033a2646970667358221220b53db5fa8855c90d44db7c5eb172da5e73f4c787cdd262bbdbf1a9c9539416cf64736f6c634300081e0033",
  "devdoc": {
    "kind": "dev",
    "methods": {},
    "version": 1
  },
  "userdoc": {
    "kind": "user",
    "methods": {},
    "version": 1
  },
  "storageLayout": {
    "storage": [
      {
        "astId": 2520,
        "contract": "contracts/TokenFactory.sol:TokenFactory",
        "label": "dexRouter",
        "offset": 0,
        "slot": "0",
        "type": "t_address"
      },
      {
        "astId": 2522,
        "contract": "contracts/TokenFactory.sol:TokenFactory",
        "label": "owner",
        "offset": 0,
        "slot": "1",
        "type": "t_address"
      }
    ],
    "types": {
      "t_address": {
        "encoding": "inplace",
        "label": "address",
        "numberOfBytes": "20"
      }
    }
  }
}